:020000040800F2
:10000000F806002089010008AF13000899100008C5
:10001000AD1300088F020008511400080000000012
:10002000000000000000000000000000B313000802
:10003000CD03000800000000B1130008B51300084C
:10004000A3010008A3010008A3010008A301000800
:10005000A3010008A3010008A3010008A3010008F0
:10006000A3010008A3010008A3010008A3010008E0
:10007000A3010008A3010008A3010008A3010008D0
:10008000A3010008A3010008A3010008A3010008C0
:10009000A3010008A3010008A3010008A3010008B0
:1000A000A3010008A3010008A3010008A3010008A0
:1000B000A3010008A3010008A3010008A301000890
:1000C000A3010008A3010008A3010008A301000880
:1000D000A3010008A3010008A3010008A301000870
:1000E000A3010008A3010008A301000800F002F822
:1000F00000F03AF80AA090E8000C82448344AAF188
:100100000107DA4501D100F02FF8AFF2090EBAE885
:100110000F0013F0010F18BFFB1A43F0010318473B
:100120003418000054180000103A24BF78C878C171
:10013000FAD8520724BF30C830C144BF04680C60ED
:10014000704700000023002400250026103A28BF35
:1001500078C1FBD8520728BF30C148BF0B60704739
:100160001FB51FBD10B510BD00F058F81146FFF7C0
:10017000F7FF01F01DFA00F076F803B4FFF7F2FF85
:1001800003BC00F07DF8000009488047094800479B
:10019000FEE7FEE7FEE7FEE7FEE7FEE7FEE7FEE737
:1001A000FEE7FEE704480549054A064B7047000094
:1001B00009140008ED000008F8000020F8060020EF
:1001C000F8020020F80200204FF0000200B51346AC
:1001D00094469646203922BFA0E80C50A0E80C5067
:1001E000B1F12001BFF4F7AF090728BFA0E80C5018
:1001F00048BF0CC05DF804EB890028BF40F8042B11
:1002000008BF704748BF20F8022B11F0804F18BF7D
:1002100000F8012B7047704770477047754600F033
:100220002BF8AE4605006946534620F00700854688
:1002300018B020B5FFF7B6FFBDE820404FF000062C
:100240004FF000074FF000084FF0000B21F00701BE
:10025000AC46ACE8C009ACE8C009ACE8C009ACE801
:10026000C0098D46704710B50446AFF300802046A4
:10027000BDE81040FFF781BF0048704794000020A0
:1002800001491820ABBEFEE7260002007047FEE7DA
:100290002DE9F04101F0EDF80021084601F031F9B7
:1002A00038A001F07BF94FF4FA77384600F050F9A6
:1002B00001F0DFF80021084601F023F934A001F035
:1002C0006DF900F085F8344C608804280AD001F0FC
:1002D000D0F80021084601F014F930A001F05EF9D1
:1002E000B80033E00025256101F0C3F801F0C1F842
:1002F0000021084601F005F92BA001F04FF900F0AC
:100300009FF800F0D9F8244AE5801432A580111D29
:10031000B4F90400135C0E5CB34204D11BB116B1F6
:10032000E3885B1CE380401C00B2A0800428EFD36C
:10033000E08804280ED001F09CF80021084601F066
:10034000E0F81CA001F02AF94FF47A70BDE8F04102
:1003500000F0FEB8104AA58012F10A02B4F90400B8
:100360000B5C1354401C00B2A0800428F6D301F0AB
:1003700080F80021084601F0C4F811A001F00EF940
:100380003846E3E7446F6920706173730000000032
:100390005061737320637500000000207361692051
:1003A00070617373000000007468617920646F6984
:1003B0000000000074686174206261690000000040
:1003C00073756363657366756C6C0000704700003D
:1003D00010B5194C0020A0806080208126E000BF6D
:1003E00001F05EF920700128FAD0C0B2412820D077
:1003F000B4F90810012001F084F810A001F0CEF843
:1004000020890D49401C2081B4F904000A310A5C9E
:1004100021788A4207D1042805D26188491C61806D
:10042000401CA08002E06088401E60802078412847
:10043000D6D10120207010BD000000202A0000004D
:1004400070B5184C0020A080208101F012F8002126
:10045000084601F056F814A001F0A0F804F11405C4
:1004600019E000BF01F01CF920700128FAD0C0B2D9
:10047000412813D0B4F90810012001F042F80DA072
:1004800001F08CF8B4F9040021782954401CA080B4
:100490002089401C208120784128E3D10120207050
:1004A00070BD0000000000206E65772070617373DE
:1004B000000000002A00000070B51C4C0020A08045
:1004C000208100F0D6FF0021084601F01AF818A09C
:1004D00001F064F800F0CDFF0021084601F011F8AA
:1004E00017A001F05BF804F1180518E001F0D8F846
:1004F00020700128FAD0C0B2412813D0B4F90810F6
:10050000012000F0FEFF11A001F048F8B4F904004A
:1005100021782954401CA0802089401C208120780B
:100520004128E3D10120207070BD000000000020B0
:10053000786163206E68616E206C61690000000064
:10054000786163206E68616E000000002A00000080
:1005500070B5044600F008F90546601C02D0044856
:100560000078044400F000F9401BA042FAD370BDAB
:100570001C0000202DE9F84FDFF8B891002409F1A4
:10058000040A0AF1040B23460F270BF1040EC9E0FD
:100590000125A5402A40AA427DD1674ED1F804C06A
:1005A000ACEB0608B44532D014DCBCF1030F3AD0F2
:1005B00009DCBCF1000F2AD0BCF1010F1CD0BCF14A
:1005C000020F31D11DE0BCF1110F17D0BCF1120F99
:1005D0002AD119E0B8F5881F19D006DCB8F5803F9C
:1005E00015D0B8F5801F1FD111E0B8F5001F0ED04F
:1005F000B8F5041F18D10AE0CB6815E0CB681B1DC5
:1006000012E0CB6808330FE0CB680C330CE08B684A
:100610002BB1012B4FF0080303D0456104E0042304
:1006200002E0056100E00023FF2A01D8064601E050
:1006300000F104064FEA840501D9A5F12005D6F89A
:10064000008007FA05FC28EA0C0803FA05F548EAD9
:100650000508C6F800804D68ED0062D5374DAE69DB
:1006600046F00106AE61AD6924F0030605F0010510
:100670000095334D06EB050CDCF80850A607360F45
:1006800007FA06F825EA0805DFF8B880404503D1E7
:100690004FF0000817E044E0DFF8AC80404502D19D
:1006A0004FF001080FE0DFF8A480404502D14FF081
:1006B000020808E0DFF89880404502D14FF00308B7
:1006C00001E04FF0040808FA06F848EA0508CCF8FB
:1006D00008804D68D9F80060ED034D4601D51643FA
:1006E00000E096432E604D68DAF80060AD03554691
:1006F00001D5164300E096432E604D68DBF800609C
:10070000ED025D4601D5164300E096432E604D682C
:10071000DEF80060AD02754601D5164300E0964351
:100720002E60641C0D682A46E5407FF431AFBDE8B9
:10073000F88F00000004014000001110001002407A
:100740000000014000080140000C01400010014081
:10075000001401408068084000D0012070470AB1B1
:10076000016170470904FBE7014880687047000099
:100770001C00002070B5040025D094F83D00002531
:1007800020B984F83C50204600F04EF9242084F82B
:100790003D002068016821F00101016020680168C6
:1007A00041F4004101602068016821F400410160CA
:1007B00000F088FA4D4A6168914201D84C4900E046
:1007C0004C49884201D2012070BD4B492368B0FBDF
:1007D000F1F15E6826F03F060E435E606368934267
:1007E00006D94FF4967359434FF47A73B1FBF3F182
:1007F0002368491C1E6A26F03F063143196261686E
:10080000914210D84900401EB0FBF1F2521CC2F3D5
:100810000B02042A01D2042022E0B0FBF1F0401CBC
:10082000C0F30B001CE0A268F2B301EBC10303EBC1
:100830000116431EB3FBF6F35B1C43F480431B0518
:1008400049D092B301EBC10202EB0111401EB0FB93
:10085000F1F0401CC0F30B0040F4804040F4004035
:100860002168CA694CF6FF739A431043C861D4E902
:10087000071001432068026822F0C00211430160A2
:10088000D4E9030101432068826848F2FF339A43A8
:1008900011438160D4E9050108432168CA6822F048
:1008A000FF021043C86001E00EE016E02068016816
:1008B00041F0010101602564202084F83D0025639A
:1008C00084F83E50002070BD01EB4106431EB3FB8F
:1008D000F6F35B1CB3E70120C2E701EB4101401EC8
:1008E000B0FBF1F0401CC0F30B00B7E7A08601009D
:1008F00080841E0000093D0040420F002DE9F84FA2
:100900001F4690468A460446DDF82890FFF72CFFE4
:10091000054694F83D0020287FD119230122404943
:100920002046009500F044FC002876D194F83C0065
:10093000012872D0012084F83C0020680168C907B2
:1009400003D1016841F0010101602068016821F4D0
:1009500000610160212084F83D00102084F83E00F1
:1009600000262664C4F824806785608D20852D4884
:10097000E0622B464A465146204600F0A5FB90B95E
:10098000206841698069009036E02A464946204641
:1009900000F08DFC50B1206C042804D1206801685F
:1009A00041F4007101600120BDE8F88F606A2168A0
:1009B00000780861606A401C6062618D491E618533
:1009C000218D491E89B2218522685369DB435B076B
:1009D0000BD451B100781061606A401C6062608D78
:1009E000401E6085208D401E20852A4649462046AF
:1009F00000F0B8FB0028CED1208D0028C5D154F8D6
:100A00003D0B016841F400710160202004F81E09CB
:100A1000E67766770020C7E7FFE70220C4E700001B
:100A2000020010000000FFFF10B586B00021009109
:100A300001910291039100680F4988421AD10F4C2D
:100A4000A06940F00800A061A069694600F00800B4
:100A50000490C020009012200190032003900848C9
:100A6000FFF788FDE06940F40010E061E06900F400
:100A70000010049006B010BD005400400010024069
:100A8000000C01400248816802781144816070477F
:100A90001C000020074810B5016841F010010160FA
:100AA000032000F067F8002000F006F800F024F8BA
:100AB000002010BD0020024070B50D4D04464FF4DB
:100AC0007A712878B1FBF0F00A490968B1FBF0F0BF
:100AD00000F0CEFA48B9102C07D200222146501E51
:100AE00000F028F800206C6070BD012070BD00008F
:100AF0001C000020280000200C4808B5816941F046
:100B000001018161816901F001010091C16941F038
:100B10008051C161C06900F0805000900448416874
:100B200021F0E06141F00071416008BD0010024019
:100B300000000140F0B40E4B1B680C46C3F30223C7
:100B4000C3F10705042D00D90425191D072901D279
:100B5000002300E0DB1E012606FA05F1491E2140B4
:100B600099409E40761E16403143F0BC00F071BCA7
:100B70000CED00E0064900F0070208684FF6FF039D
:100B8000184040EA0220034A104308607047000002
:100B90000CED00E00000FA052DE9F0470F460500D6
:100BA00061D0434E306800F00700B84209D2306887
:100BB00020F0070038433060306800F00700B8428A
:100BC00051D128683B4C810712D5400703D5606896
:100BD00040F4E06060602878000703D5606840F466
:100BE000605060606068A96820F0F00008436060B1
:100BF0002878C00728D06868012810D0216802280A
:100C000010D0890700292EDA616821F00301014321
:100C10006160FFF7A9FD804641F288390DE0216847
:100C20008903EFE78901EDE7FFF79EFDA0EB0801DF
:100C3000494502D90320BDE8F0876068696800F083
:100C40000C00B0EB810FEFD1306800F00700B84224
:100C50000BD9306820F0070038433060306800F06E
:100C60000700B84201D00120E5E72878400705D504
:100C70006068E96820F4E060084360602878000755
:100C800006D56068296920F4605040EAC1006060C0
:100C900000F028F86168084AC1F30311515CC840AC
:100CA0000649086006480068FFF706FF0020C2E713
:100CB00000200240001002403C19000828000020DB
:100CC000200000200448054900684968044AC1F32F
:100CD0000221515CC84070472800002000100240EB
:100CE0004C19000812A185B00FC98DE80F0014A09F
:100CF000144A006804905168134801F00C03042B57
:100D000010D0082B0ED1C1F38343C9031DF8030093
:100D10000AD5516804AAC1F34041515C0A4A5043C4
:100D2000B0FBF1F005B0704708494843FAE700000E
:100D300002030405060708090A0B0C0D0E0F10101C
:100D4000010200000010024000127A0000093D007C
:100D50002DE9F84F040070D02078C04DC00749D06D
:100D60006868C0F38100012807D06868C0F381007B
:100D7000022809D16868C00306D52868800339D5E0
:100D800060680028E7D035E06068B0F5803F0BD0A0
:100D900010B1B0F5A02F11D0286820F48030286061
:100DA000286820F4802002E0286840F48030286021
:100DB000606890B1FFF7D8FC06460AE0286840F466
:100DC00080202860F0E700BFFFF7CEFC801B64287E
:100DD00073D828688003F7D50CE0FFF7C5FC0646FA
:100DE00005E000BFFFF7C0FC801B6428F0D828682E
:100DF0008003F7D420789A4E80074FF001094FF016
:100E0000000839D5686810F00C0F07D06868C0F387
:100E10008100022809D16868C00306D428688007C9
:100E200014D52069012808D110E02069B0B1C6F8B6
:100E30000090FFF799FC074605E00AE1FFF794FCF4
:100E4000C01B0228C4D828688007F7D528686169C4
:100E500020F0F80040EAC10028600DE0C6F80080EC
:100E6000FFF782FC074604E0FFF77EFCC01B022868
:100E700023D828688007F7D4207800072CD5794834
:100E8000A169D9B1C0F80090FFF76EFC074604E0F5
:100E9000FFF76AFCC01B02280FD8686A8007F7D5E5
:100EA00071484FF4FA510068B0FBF1F0009000BFB8
:100EB0000098411E0091FAD20EE080E0C0F8008058
:100EC000FFF752FC074604E0FFF74EFCC01B022868
:100ED00075D8686A8007F7D42078400760D5E8693C
:100EE0000027C00008D4E86940F08050E861E86954
:100EF000012700F0805000905C480168C90513D4B8
:100F00000168834641F480710160FFF72DFC824641
:100F100006E000BFFFF728FCA0EB0A0064284ED8CB
:100F2000DBF80000C005F5D5E06801280AD008B15B
:100F3000052813D0286A20F001002862286A20F0D2
:100F4000040002E0286A40F001002862E06841F2F3
:100F5000883B98B1FFF708FC82460BE0286A40F016
:100F600004002862EEE700BFFFF7FEFBA0EB0A01DA
:100F700059455AD8286A8007F6D50CE0FFF7F4FBEC
:100F8000824605E0FFF7F0FBA0EB0A0159454CD87B
:100F9000286A8007F6D41FB1E86920F08050E86124
:100FA000E06988B36968C1F38101022944D002284D
:100FB000C6F8608004D0FFF7D7FB044638E034E081
:100FC000FFF7D2FB074604E0FFF7CEFBC01B022869
:100FD0002BD828688001F7D4206AB0F5803F05D16E
:100FE0006868A16820F4003008436860D4E908010B
:100FF0000843696821F4741108436860C6F860907A
:10100000FFF7B2FB044606E025E000BFFFF7ACFBAC
:10101000001B022809D828688001F7D51BE000BF13
:10102000FFF7A2FB001B022802D90320BDE8F88FBE
:1010300028688001F4D40EE00128F7D06868226A9D
:1010400000F48031914204D1616A00F4701088424A
:1010500001D00120EAE70020E8E70000001002408C
:1010600000004242800442422800002000700040FC
:1010700010B5401EB0F1807F01D3012010BD4FF0AC
:10108000E02460610F21601700F0E3F90020A06107
:1010900007202061002010BDFEE701684A69D243A5
:1010A00052050FD46FF480624A61002140F8301F6E
:1010B000202242738173026942F0040202610173CB
:1010C0000120704700207047F8B50446C06A1E46EC
:1010D0000D461746082807D0012805D010F5803F97
:1010E00002D0206B122804D12068016841F480717D
:1010F0000160134600224FF001112046009600F0D7
:1011000057F840B120680068C00502D54FF4007060
:1011100020640320F8BD2069B0F5804F0ED0062072
:10112000216800EAD51040F0F000086133463A46E5
:101130000B49204600F070F878B902E005F0FE0097
:1011400000E0E8B221680861054933463A46891F44
:10115000204600F061F80028DCD00120F8BD000036
:101160000800010070B516460D4604460DE0204605
:10117000FFF793FF08B1012070BD681C05D0FFF791
:10118000F3FA801BA84207D835B120684069C043F4
:101190004007ECD4002070BD002044F8300F20211F
:1011A0006173A073216941F0200121612073E2E79E
:1011B0002DE9F0471E4690460D460446C1F3074709
:1011C000DDF8209008E0701C06D0FFF7CDFAA0EB08
:1011D0000900B0420FD876B12068012F18D080697D
:1011E00025EA00000004000C14D000214145EAD09B
:1011F0000020BDE8F087002044F8300F2021617303
:10120000A073216941F02001216120730120F0E7E2
:101210004069E5E70121E9E72DE9F0479A46914663
:101220000E46044600254FF02008C1F3074725E08D
:1012300020684069C043400514D42068016841F427
:101240000071016021686FF480604861256384F853
:101250003D8084F83E50206C40F00400206484F807
:101260003C501FE0B9F1FF3F08D0FFF77DFAA0EB3B
:101270000A0149450CD8B9F1000F09D02068012FA7
:1012800013D0806926EA00000004000C0BD0CFE7E1
:1012900044F8305F84F80D80A573206940F0200089
:1012A000206125730120BDE8F0874069EAE770B549
:1012B00016460D4604460DE02046FFF7EEFE08B147
:1012C000012070BD681C05D0FFF74EFA801BA842B4
:1012D00007D835B120684069C0430006ECD400202F
:1012E00070BD002044F8300F20216173A073216984
:1012F00041F0200121612073E2E700002DE9F04177
:1013000086B00024264800940194029403948169D5
:1013100041F020018161816901F02001049181691E
:1013200041F004018161816901F004010491816946
:1013300041F00801816180691A4F00F008000490B3
:10134000002270213846FFF70AFADFF85C8000229D
:1013500001214046FFF703FA0E2001258DE83100F8
:1013600069463846FFF706F970200226CDE90005E8
:10137000CDE9024669463846FFF7FCF8039600952A
:10138000CDE9015469464046FFF7F4F800966946F6
:101390004046CDE90145FFF7EDF806B0BDE8F08124
:1013A0000010024000080140000C0140FEE77047B9
:1013B00070477047FFF766BB30B58FB0282168468D
:1013C000FEF702FF14210AA8FEF7FEFE0121080421
:1013D000CDE900100024029402250491CDE90750C4
:1013E0004FF4E01009906846FFF7B2FC0F20CDE9FA
:1013F0000A056802CDE90C4002210AA80E94FFF705
:10140000CBFB0FB030BD00000D48016841F0010179
:10141000016041680B4A1140416001680A4A11406D
:101420000160016821F480210160416821F4FE011E
:1014300041604FF41F0181600449C0030860704798
:10144000001002400000FFF8FFFFF6FE08ED00E08C
:10145000FEE70907090E002804DB00F1E02080F810
:101460000014704700F00F0000F1E02080F8141D18
:10147000704710B5802000F051F80024202000F0C3
:101480006DF8641C462CF9DB10BD10B53220FFF757
:101490005FF8302000F042F80520FFF759F83020BF
:1014A00000F03CF80120FFF753F8302000F036F848
:1014B0000A20FFF74DF8202000F030F80A20FFF74F
:1014C00047F8282000F02AF80120FFF741F808200B
:1014D00000F024F80120FFF73BF8012000F01EF88F
:1014E0000120FFF735F80120FFF732F8062000F061
:1014F00015F80120FFF72CF8BDE810400C2000F093
:101500000DB810B1012805D102E041F0800101E0E1
:1015100041F0C001C8B200F001B800001CB500F0F5
:10152000F00141F00C028DF8042041F008010001A7
:101530008DF8051040F00C018DF8061040F0080001
:101540008DF8070064200090042301AA4E21024870
:10155000FFF7D4F91CBD0000400000201CB500F0CE
:10156000F00141F00D028DF8042041F00901000165
:101570008DF8051040F00D018DF8061040F00900BF
:101580008DF8070064200090042301AA4E21024830
:10159000FFF7B4F91CBD00004000002010B5044660
:1015A00002E0641CFFF7DAFF20780028F9D110BDB3
:1015B000FFF770FAFFF700FFFFF7A0FE2548244968
:1015C0004FF4804201602449416000218160C0E9FC
:1015D000031241618161C1610162FFF7CBF8FFF73E
:1015E00054FF00210846FFF78CFF1CA0FFF7D6FF31
:1015F00001210846FFF785FF1D4C00BF00F050F8A1
:101600002A2804D02328F9D1FEF742FEF6E7FFF797
:1016100030FF00210846FFF774FF16A0FFF7BEFF5A
:10162000FEF7D6FE6088042809D0FFF722FF0021CC
:101630000846FFF766FF13A0FFF7B0FFDEE7FFF7EE
:1016400018FF00210846FFF75CFF11A0F4E7000037
:101650000054004040000020A086010020484F4375
:10166000205649454E204B544D4D3A200000000075
:1016700000000020456E7465722070617373776F8F
:1016800072643A004E686170206C6169000000006D
:10169000202020204F70656E20646F6F7200000064
:1016A00070B5A44D002201212846FFF758F8A24C3E
:1016B000012240212046FFF752F801222021204636
:1016C000FFF74DF8012210212046FFF748F80821C6
:1016D0002046FFF73FF800287DD004212046FFF781
:1016E00039F8002878D002212046FFF733F8002887
:1016F00073D002212846FFF72DF800286ED0012272
:1017000011462E462846FFF72AF80022402120469F
:10171000FFF725F8012220212046FFF720F80122BB
:1017200010212046FFF71BF808212046FFF712F88A
:1017300000287BD004212046FFF70CF8002876D043
:10174000022125462046FFF705F8002870D0022127
:1017500034463046FEF7FEFF00286AD001221146CB
:1017600026462046FEF7FBFF012240212C46284654
:10177000FEF7F5FF002220212046FEF7F0FF0122B0
:1017800010212046FEF7EBFF08212046FEF7E2FF7E
:1017900000286FD004212046FEF7DCFF00286AD025
:1017A00002212046FEF7D6FF002875D002213546DB
:1017B0003046FEF7CFFF00286FD0012211462846A1
:1017C000FEF7CDFF012240212046FEF7C8FF01228F
:1017D0002021204603E02DE034E03BE042E0FEF72C
:1017E000BEFF002210212046FEF7B9FF0821204647
:1017F000FEF7B0FF002871D004212046FEF7AAFFB3
:1018000000286CD002212046FEF7A4FF002867D0F4
:1018100002212846FEF79EFF002806D10221284615
:10182000FEF798FF0028F9D0442070BD24E02BE09B
:1018300034E03BE008212046FEF78CFF0028F9D079
:101840003120F2E704212046FEF784FF0028F9D07A
:101850003220EAE702212046FEF77CFF0028F9D07B
:101860003320E2E702212846FEF774FF0028F9D072
:101870004120DAE722E029E008212046FEF76AFF4E
:101880000028F9D03420D0E704212046FEF762FF7B
:101890000028F9D03520C8E723E02AE002212846B5
:1018A000FEF758FF0028F9D03620BEE70221204677
:1018B000FEF750FF0028F9D04220B6E70821204665
:1018C000FEF748FF0028F9D03720AEE70421204674
:1018D000FEF740FF0028F9D03820A6E711E018E015
:1018E0001FE002212046FEF735FF0028F9D03920FD
:1018F0009BE702212846FEF72DFF0028F9D0432060
:1019000093E708212046FEF725FF0028F9D02A207A
:101910008BE704212046FEF71DFF0028F9D0302078
:1019200083E702212046FEF715FF0028F9D0232087
:101930007BE70000000C01400008014000000000AF
:10194000000000000102030406070809000000006F
:101950000102030474190008000000202C0000009C
:1019600028010008A01900082C000020CC06000067
:1019700044010008000000000000000000003230B8
:1019800032320000000000000000000000000000F3
:101990000100000010000000000000000024F4001E
:04000005080000ED02
:00000001FF
